:100000000C9474000C9495000C9495000C9495003D
:100010000C9495000C9495000C9495000C9495000C
:100020000C9495000C9495000C9495000C949500FC
:100030000C9495000C9495000C9495000C949500EC
:100040000C9495000C9495000C9495000C949500DC
:100050000C9495000C9495000C9495000C949500CC
:100060000C9495000C9495000C9495000C949500BC
:100070000C9495000C9495000C9495000C949500AC
:100080000C9495000C9495000C9495000C9495009C
:100090000C9495000C9495000C9495000C9495008C
:1000A0000C9495000C9495000C9495000C9495007C
:1000B0000C9495000C9495000C9495000C9495006C
:1000C0000C9495000C9495000C9495000C9495005C
:1000D0000C9495000C9495000C9495000C9495004C
:1000E0000C9495000C94A80011241FBECFEFD1E210
:1000F000DEBFCDBF00E00CBF13E0A0E0B2E0E2EA5B
:10010000FFE000E00BBF02C007900D92AA3DB107CF
:10011000D9F723E0AAEDB3E001C01D92A23FB207D8
:10012000E1F70E9486030C94CF070C94000089EA43
:100130008093800089E08093810083E88093B00001
:1001400081E08093B100279A269A259A249A0895EF
:100150008A3049F09091C00095FFFCCF8093C60093
:1001600080E090E008959091C00095FFFCCF9DE065
:100170009093C600EFCF1092C50082E38093C40035
:1001800086E08093C20088E98093C1000895909131
:10019000C00095FFFCCF8093C60008958091C000F9
:1001A00087FFFCCF8091C6000895FC019091C000AC
:1001B00097FFFCCF9091C6009193992329F09A3034
:1001C00011F09D3099F711929E2F981B892F089559
:1001D000FC012081222351F031969091C00095FFBF
:1001E000FCCF2093C60021912111F7CF089580E024
:1001F00092E09093EF038093EE031092C50082E3A8
:100200008093C40086E08093C20088E98093C10097
:100210000895FC018081813379F08233A9F0833322
:1002200011F18433C9F086E793E09F938F930E9486
:10023000D1040F900F90089580918C008F3FD1F0E2
:1002400080918C000C94D60180918A008F3FA9F098
:1002500080918A000C9442028091B3008F3F81F418
:100260008093B3000895809188008F3F69F4809354
:100270008800089580938C00089580938A000895E3
:100280008091B3000C941A03809188000C94AE0204
:10029000FC018081813379F08233A1F0833301F155
:1002A0008433B9F086E793E09F938F930E94D10443
:1002B0000F900F90089580918C00811118C01092BA
:1002C0008C00089580918A00811115C010928A00D7
:1002D00008958091B300811112C01092B300089567
:1002E0008091880081110FC010928800089580913C
:1002F0008C000C940C0280918A000C9478028091FE
:10030000B3000C945003809188000C94E402CF93C6
:10031000DF93EC018AE993E00E94E504DF93CF9339
:100320000E94D10488810F900F90813321F1823394
:10033000C9F0833371F0843319F0DF91CF910895C0
:100340008091B300882361F11092B300DF91CF91C7
:1003500008958091880081111FC08FEF80938800DD
:100360008881E9CF80918A00811112C08FEF80933C
:100370008A008881DECF80918C00811105C08FEFCB
:1003800080938C008881D3CF10928C008881CFCF4E
:1003900010928A008881CDCF109288008881CBCFBF
:1003A0008FEF8093B300DF91CF9108950F931F9348
:1003B000CF93DF93082F89EB93E00E94E5048091AF
:1003C0008C0010E00D5C1F4F90E080179107F9F052
:1003D000C5ECD3E090918C001F929F93DF93CF9355
:1003E0000E94D1048FE39CE90197F1F700C000005F
:1003F00090918C009F5F90938C0020918C0030E056
:100400000F900F900F900F902017310719F7DF9181
:10041000CF911F910F9108950F931F93CF93DF9367
:10042000082F89EB93E00E94E50480918C0010E096
:100430000353110990E080179107F9F0C5ECD3E060
:1004400090918C001F929F93DF93CF930E94D104D1
:100450008FE39CE90197F1F700C0000090918C00B8
:10046000915090938C0020918C0030E00F900F9071
:100470000F900F902017310719F7DF91CF911F913F
:100480000F9108950F931F93CF93DF93082F89EB5C
:1004900093E00E94E50480918A0010E00D5C1F4FFC
:1004A00090E080179107F9F0C5ECD3E090918A00B5
:1004B0001F929F93DF93CF930E94D1048FE39CE917
:1004C0000197F1F700C0000090918A009F5F909320
:1004D0008A0020918A0030E00F900F900F900F90CB
:1004E0002017310719F7DF91CF911F910F910895D0
:1004F0000F931F93CF93DF93082F89EB93E00E9414
:10050000E50480918A0010E00353110990E0801700
:100510009107F9F0C5ECD3E090918A001F929F9368
:10052000DF93CF930E94D1048FE39CE90197F1F709
:1005300000C0000090918A00915090938A00209111
:100540008A0030E00F900F900F900F902017310726
:1005500019F7DF91CF911F910F9108950F931F937A
:10056000CF93DF93082F89EB93E00E94E5048091FD
:10057000880010E00D5C1F4F90E080179107F9F0A4
:10058000C5ECD3E0909188001F929F93DF93CF93A7
:100590000E94D1048FE39CE90197F1F700C00000AD
:1005A000909188009F5F909388002091880030E0B0
:1005B0000F900F900F900F902017310719F7DF91D0
:1005C000CF911F910F9108950F931F93CF93DF93B6
:1005D000082F89EB93E00E94E5048091880010E0E9
:1005E0000353110990E080179107F9F0C5ECD3E0AF
:1005F000909188001F929F93DF93CF930E94D10424
:100600008FE39CE90197F1F700C00000909188000A
:100610009150909388002091880030E00F900F90C7
:100620000F900F902017310719F7DF91CF911F918D
:100630000F9108950F931F93CF93DF93082F89EBAA
:1006400093E00E94E5048091B30010E00D5C1F4F21
:1006500090E080179107F9F0C5ECD3E09091B300DA
:100660001F929F93DF93CF930E94D1048FE39CE965
:100670000197F1F700C000009091B3009F5F909345
:10068000B3002091B30030E00F900F900F900F90C7
:100690002017310719F7DF91CF911F910F9108951E
:1006A0000F931F93CF93DF93082F89EB93E00E9462
:1006B000E5048091B30010E00353110990E0801726
:1006C0009107F9F0C5ECD3E09091B3001F929F938E
:1006D000DF93CF930E94D1048FE39CE90197F1F758
:1006E00000C000009091B30091509093B30020910E
:1006F000B30030E00F900F900F900F90201731074C
:1007000019F7DF91CF911F910F910895CF93DF9348
:10071000CDB7DEB7C854D1090FB6F894DEBF0FBE0F
:10072000CDBF0E94F7000E94BB000E9497008EE0A0
:1007300092E00E94E800CE01C1960E94D50081316E
:1007400060F08DE292E00E94E80086E692E00E946E
:10075000E800CE01C1960E94D50089E792E00E9490
:10076000E80080E1FE01F196DE01919601900D9284
:100770008A95E1F7CE0181960E94E8008E010F5B19
:100780001F4F80EDE82E82E0F82E9FE1A92E93E026
:10079000B92E2EECC22E22E0D22E8AE892E00E94E0
:1007A000E800CE01C1960E94D50089A9F801808396
:1007B0008AA981838BA982838CA983838DA9848351
:1007C0008EA985838FA9868388AD8783FF92EF9258
:1007D0000E94D1041F930F930E94D104C8010E946C
:1007E000E800F80180810F900F900F900F908133F7
:1007F00029F1823309F48FC0833309F4B5C08433FF
:1008000061F682E593E00E94E800CE01C1960E9465
:10081000D50089A989838AA98A838BA98B838CA90E
:100820008C838DA98D838EA98E838FA98F8388ADAC
:100830008887CE0101960E948701AFCFDF92CF92C9
:100840000E94D1041F930F930E94D10485EE92E081
:100850000E94E800CE01C1960E94D50089A9898B2B
:100860008AA98A8B8BA98B8B8CA98C8B8DA98D8B5C
:100870008EA98E8B8FA98F8B88AD888F89AD898F3C
:100880008AAD8A8F8BAD8B8F8CAD8C8F8DAD8D8F1C
:100890008EAD8E8F8FAD8F8F21968FAD219788A3D0
:1008A00088EF92E00E94E800CE0141960E94E800A5
:1008B000CE01C1960E94D50089A989838AA98A831D
:1008C0008BA98B838CA98C838DA98D838EA98E8314
:1008D0008FA98F8388AD888789AD89878AAD8A87FC
:1008E0008BAD8B878CAD8C878DAD8D878EAD8E87D4
:1008F0008FAD8F8721968FAD2197888B82E193E012
:100900000E94E800CE0101960E94E8000F900F902F
:100910000F900F9042CFBF92AF920E94D1041F93CD
:100920000F930E94D10487E393E00E94E800CE0178
:10093000C1960E94D50089A989838AA98A838BA937
:100940008B838CA98C838DA98D838EA98E838FA98F
:100950008F8388AD8887CE0101960E9409010F9090
:100960000F900F900F9019CF87E393E00E94E8005B
:10097000CE01C1960E94D50089A989838AA98A835C
:100980008BA98B838CA98C838DA98D838EA98E8353
:100990008FA98F8388AD8887CE0101960E94480178
:1009A000FCCECF93DF93CDB7DEB7AE014A5F5F4F8A
:1009B000FA0161917191AF018091EE039091EF0383
:1009C0000E941505DF91CF9108950F931F93CF9348
:1009D000DF93E091EE03F091EF03238121FF1BC031
:1009E0008C01D0E0C0E0F80181918F016091EE03AD
:1009F0007091EF03DB011896ED91FC911997882314
:100A000031F01995892B79F3DFEFCFEFECCF8AE046
:100A10001995892B19F08FEF9FEF02C08D2F9C2F16
:100A2000DF91CF911F910F9108952F923F924F9296
:100A30005F926F927F928F929F92AF92BF92CF926E
:100A4000DF92EF92FF920F931F93CF93DF93CDB777
:100A5000DEB72B970FB6F894DEBF0FBECDBF6C018B
:100A60007B018A01FC0117821682838181FFCCC140
:100A7000CE0101963C01F6019381F70193FD85912A
:100A800093FF81917F01882309F4BAC1853239F43B
:100A900093FD859193FF81917F01853229F4B60101
:100AA00090E00E943507E7CF912C212C312CFFE1FB
:100AB000F315D8F08B3279F038F4803279F0833244
:100AC000A1F4232D20611DC08D3261F0803369F4C3
:100AD000232D216016C0832D8260382EE32DE46023
:100AE0003E2E2AC0F32DF8601DC037FC2DC020ED2E
:100AF000280F2A3040F08E32B9F436FC81C1232D04
:100B00002064322E19C036FE06C08AE0989E200D61
:100B10001124922E11C0EAE02E9E200D1124222EC7
:100B2000F32DF0623F2E08C08C3621F4832D8068AF
:100B3000382E02C0883641F4F70193FD859193FF6A
:100B400081917F018111B3CF982F9F7D9554933070
:100B500028F40C5F1F4F9FE399830DC0833631F05B
:100B6000833771F0833509F059C021C0F8018081C5
:100B700089830E5F1F4F88248394912C530113C0E7
:100B80002801F2E04F0E511CF801A080B18036FE22
:100B900003C0692D70E002C06FEF7FEFC5010E94B6
:100BA0002A074C018201F32DFF773F2E16C0280142
:100BB00022E0420E511CF801A080B18036FE03C035
:100BC000692D70E002C06FEF7FEFC5010E941F0723
:100BD0004C01F32DF0683F2E820133FC1BC0822DA7
:100BE00090E088169906B0F4B60180E290E00E9489
:100BF00035072A94F4CFF50137FC859137FE8191B2
:100C00005F01B60190E00E94350721102A9421E08F
:100C1000821A91088114910471F7E8C0843611F0AA
:100C2000893641F5F80137FE07C060817181828104
:100C300093810C5F1F4F08C060817181072E000CEB
:100C4000880B990B0E5F1F4FF32DFF763F2E97FFFA
:100C500009C090958095709561957F4F8F4F9F4FFC
:100C6000F0683F2E2AE030E0A3010E947107882E31
:100C7000861845C0853731F4232D2F7EB22E2AE009
:100C800030E025C0932D997FB92E8F36C1F018F42E
:100C9000883579F0B5C0803719F0883721F0B0C0B9
:100CA000E92FE061BE2EB4FE0DC0FB2DF460BF2E17
:100CB00009C034FE0AC0292F2660B22E06C028E0E3
:100CC00030E005C020E130E002C020E132E0F80170
:100CD000B7FE07C060817181828193810C5F1F4FD5
:100CE00006C06081718180E090E00E5F1F4FA3011C
:100CF0000E947107882E8618FB2DFF773F2E36FE47
:100D00000DC0232D2E7FA22E891458F434FE0BC063
:100D100032FC09C0832D8E7EA82E05C0B82CA32CD2
:100D200003C0B82C01C0B92CA4FE0FC0FE01E80D11
:100D3000F11D8081803321F49A2D997EA92E09C05E
:100D4000A2FE06C0B394B39404C08A2D867809F03D
:100D5000B394A3FC11C0A0FE06C0B21488F4280C02
:100D6000922C9B180EC0B21460F4B60180E290E0A1
:100D70000E943507B394F7CFB21418F42B1802C0B1
:100D8000982C212CA4FE10C0B60180E390E00E94B4
:100D90003507A2FE17C0A1FC03C088E790E002C09F
:100DA00088E590E0B6010CC08A2D867859F0A1FE46
:100DB00002C08BE201C080E2A7FC8DE2B60190E0A8
:100DC0000E943507891438F4B60180E390E00E9450
:100DD00035079A94F7CF8A94F301E80DF11D8081CD
:100DE000B60190E00E9435078110F5CF222009F46A
:100DF00042CEB60180E290E00E9435072A94F6CFF9
:100E0000F6018681978102C08FEF9FEF2B960FB678
:100E1000F894DEBF0FBECDBFDF91CF911F910F9130
:100E2000FF90EF90DF90CF90BF90AF909F908F900A
:100E30007F906F905F904F903F902F900895FC01AE
:100E40000590615070400110D8F7809590958E0FF5
:100E50009F1F0895FC016150704001900110D8F768
:100E6000809590958E0F9F1F08950F931F93CF939A
:100E7000DF93FB01238121FD03C08FEF9FEF2CC087
:100E800022FF16C0468157812481358142175307BE
:100E900044F4A081B1819D012F5F3F4F31832083B6
:100EA0008C93268137812F5F3F4F3783268314C071
:100EB0008B01EC01FB010084F185E02D1995892B54
:100EC000E1F6D80116968D919C9117970196179689
:100ED0009C938E931697CE01DF91CF911F910F9126
:100EE0000895FA01AA27283051F1203181F1E894C0
:100EF0006F936E7F6E5F7F4F8F4F9F4FAF4FB1E00D
:100F00003ED0B4E03CD0670F781F891F9A1FA11D07
:100F1000680F791F8A1F911DA11D6A0F711D811D08
:100F2000911DA11D20D009F468943F912AE0269FCD
:100F300011243019305D3193DEF6CF010895462F2C
:100F40004770405D4193B3E00FD0C9F7F6CF462F0D
:100F50004F70405D4A3318F0495D31FD4052419376
:100F600002D0A9F7EACFB4E0A69597958795779533
:100F70006795BA95C9F700976105710508959B01BA
:100F8000AC010A2E06945795479537952795BA9543
:100F9000C9F7620F731F841F951FA01D0895F89451
:020FA000FFCF81
:100FA2000000000200000000A800000000004265EE
:100FB2006E76656E75746F2C2061737365676E61F2
:100FC2006D6920756E206E6F6D652E0A0041747416
:100FD200656E7A696F6E652120496C206E6F6D6552
:100FE20020646576652065737365726520616C2087
:100FF2006D617373696D6F2064692038206C65744C
:10100200746572650A0041737365676E616D69206C
:10101200756E206E6F6D650A0042656E652C206DDF
:101022006920636869616D6F2000536365676C694D
:1010320020756E61206F706572617A696F6E650AE4
:1010420020312E207377697463680A20322E20645F
:10105200696D6D65722B0A20332E2064696D6D6592
:10106200722D0A20342E206F6E2F6F66660031209B
:10107200694C2076616C6F7265206469206F7065BF
:101082007261742000536365676C6920756E6F200E
:101092007377697463680A0041737365676E6F20C2
:1010A2006E6F6D6520616C6C6F2073776974636815
:1010B20020006E6F6D65206465766963652000327D
:1010C20020694C2076616C6F7265206469206F70B4
:1010D20065726174202000536365676C69207377C1
:1010E200697463682064612064696D6D6572617200
:1010F2006500536365676C69207377697463682060
:10110200646120616363656E646572652F737065E7
:10111200676E657265004E657373756E6F207377C7
:10112200697463682076616C69646F2070657220EF
:10113200696C2064696D6D65720056616C6F7265D1
:10114200206C65642C20736F6E6F20696E206C6555
:10115200645F6F6E5F6F666600736F6E6F20696E9D
:1011620020626F3100736F6E6F20696E20626F2094
:0A1172002076616C3A2025640A0023
:00000001FF
